:100000000C94020F0C9420120C9451120C94821236
:100010000C94B3120C94E4120C9415130C94461324
:100020000C9477130C943D0F0C943D0F0C943D0FE2
:100030000C943D0F0C945C140C943D0F0C943D0FEC
:100040000C943D0F0C947F640C943D0F0C943D0F69
:100050000C943D0F0C943D0F0C9445770C943F0F7E
:100060000C943D0F0C9439C40C943D0F0C943D0F2F
:100070000C943D0F0C943D0F0C943D0F0C943D0FD0
:100080000C943D0F0C943D0F0C943D0F0C943D0FC0
:100090000C943D0F0C943D0F0C943D0F0C943D0FB0
:1000A0000C943D0F0C943D0F0C943D0F0C943D0FA0
:1000B0000C943D0F0C943D0F0C943D0F0C943D0F90
:1000C0000C943D0F0C943D0F0C948B2E0C943D0F13
:1000D0000C943D0F0C943D0F0C943D0F0C943D0F70
:1000E0000C943D0F7B10801085108F10991010110B
:1000F000A310AB10B310BD10C710D110DE10E81064
:100100001011F210FC1006113D1141112B1131118B
:100110003711861145114B11511157115D116311A2
:1001200069116F11861175117B11811189389A3807
:10013000AB38BC38CD38DE38E738CF77DE77FA77A2
:100140000978257834785078547858785C786078D5
:1001500064786C78084AD73B3BCE016E84BCBFFD07
:10016000C12F3D6C74319ABD56833DDA3D00C77F87
:1001700011BED9E4BB4C3E916BAAAABE0000008020
:100180003F05A84CCDB2D44EB93836A9020C50B9AF
:10019000918688083CA6AAAA2ABE000000803F00DB
:1001A0000C94DE100C94EE390C940C310C94DF2777
:1001B0000C94F9960C948F100C946C780C947A181B
:1001C0000C946C900C946E1C0C94E8100C944D18CC
:1001D0000C942B350C9415300C9471190C94BC189C
:1001E0000C94F3960C9484180C949A380C945C78C4
:1001F0000C94A6180C94FC100C94F7380C94FA7715
:100200000C9410110C9481110C940F970C94DD95A3
:100210000C9409780C9454780C94CA350C94841975
:100220000C9469110C946C630C94D0C30C94C11899
:100230000C945D110C94BD100C94463A0C9457111B
:100240000C945B280C943F190C948E1A0C94411159
:100250000C9460780C9479900C9486110C949910FD
:100260000C94E7380C94261F0C9431220C94739054
:100270000C94E5270C94EE460C9445110C94071948
:100280000C9446280C9448180C9495180C945B19FF
:100290000C94AB100C9467330C94A3100C94587806
:1002A0000C9423190C943D110C94F9950C94DE38A0
:1002B0000C9406110C947B110C94BF160C94863987
:1002C0000C9464780C9475110C94CA1D0C94CD3860
:1002D0000C947B100C94B12C0C942B110C94F210F8
:1002E0000C94FF780C94B4C30C941A370C94D53149
:1002F0000C94BC380C942F280C94F3950C941E236A
:100300000C949E320C946F110C948A190C94EB1877
:100310000C94B7180C944B110C9431110C94641973
:100320000C9451110C94B3100C940A280C9450782E
:100330000C9434780C9485100C9434C40C94801074
:100340000C940E2B0C9470380C94A6190C948938CC
:100350000C9437110C94CF770C94DE770C946A30A0
:100360000C94D1100C94BC140C94536D0C94AB38B9
:100370000C940F210C9425780C94C7100C947F18C2
:100380000C9463110C94C11300000A0B02090C0DAC
:100390000E08070304010000000000000000000038
:1003A000000000000000000000000000000000004D
:1003B000000000001211100000000000000000000A
:1003C000000000000000000000000000000000002D
:1003D000000000000000000000000000000001021A
:1003E0001020200808102040102040800201020147
:1003F00008040201010204081020408080402010FF
:100400000804020180040201804020100804020157
:1004100008040201010204081020408001020408BF
:1004200010204080100804088010204004408010F4
:100430002040048005050505070508080808020294
:1004400002020A0A0808040404040101010101016E
:1004500001010303030303030303040707070C0C51
:100460000C0C0C0C0C0C0202020206060606060618
:1004700006060B0B0B0B0B0B0B0B07070A0A0A0AE2
:100480000A0A0505050404040808000020002300EA
:10049000260029002C002F0032000001000003017B
:1004A0000601090100002200250028002B002E0073
:1004B0003100340002010000050108010B010000B9
:1004C0002100240027002A002D0030003300010104
:1004D0000000040107010A0102454D455247454EFF
:1004E00043592053544F5021002334323900322EC7
:1004F000302E3000486570686573746F73005370F8
:100500006565640054656D7065726174757265002F
:100510005072696E74696E672E2E2E002020202086
:1005200020207072696E74696E6720202020202060
:10053000002020627574746F6E20746F2072657372
:10054000756D6520200065787472756465732C2064
:100550007072657373207468652000205768656E3B
:10056000207468652066696C616D656E742020007A
:10057000202020202074686520627574746F6E20BE
:1005800020202020002066696C616D656E742061FA
:100590006E642070726573732000202020496E7392
:1005A00065727420746865206E65772020200020B5
:1005B00073746F7070656420657874727564696EA9
:1005C00067202000717569636B6C79207768656EB0
:1005D0002069742068617320002050756C6C207451
:1005E00068652066696C616D656E74202000616EBF
:1005F0006420657874726163742066696C616D65EE
:100600006E74002073746172742074686520707257
:100610006F63657373202000507265737320746874
:100620006520627574746F6E20746F200020202026
:10063000506C617465206C6576656C656421202062
:10064000200020202020204973206974206F6B3FF8
:100650002020202020200020262050726573732047
:1006600074686520627574746F6E200041646A75E9
:10067000737420666F7572746820706F696E742071
:10068000002026205072657373207468652062759F
:1006900074746F6E20002041646A757374207468EE
:1006A00069726420706F696E742000202620507279
:1006B0006573732074686520627574746F6E2000B2
:1006C00041646A757374207365636F6E6420706F24
:1006D000696E742000202620507265737320746840
:1006E0006520627574746F6E20002041646A7573B2
:1006F0007420666972737420706F696E74200020B4
:100700002020507265737320746F2073746172744B
:1007100020202000204C6576656C696E6720706C27
:100720006174652E2E2E2020004D373030004D375D
:1007300030320001200048656174696E672E2E2EEC
:100740000041626F7274004D37303100496E73653D
:1007500072742026205072657373004261636B00CF
:1007600001200048656174696E672E2E2E0041627B
:100770006F727400556E6C6F6164004C6F61640041
:100780004261636B00580059005A004578747275D5
:10079000646572004578747275646572004D6F7699
:1007A00065205A004D6F76652059004D6F766520A3
:1007B00058004261636B004D6F766520302E316DBD
:1007C0006D004D6F766520316D6D004D6F76652043
:1007D00031306D6D004261636B004A6F67004D38C8
:1007E000340044697361626C652073746570706570
:1007F000727300473238004175746F20686F6D6501
:10080000004261636B0020507265737320746F2027
:1008100061626F72740001200054656D703A00438C
:100820006F6F6C696E672E2E2E0050726568656161
:100830007400436F6F6C646F776E004C6576656C07
:1008400020706C617465004D6F7665206178697306
:100850000046696C616D656E74004261636B004DAA
:10086000383420582059205A204500486570686562
:1008700073746F732072656164790053746F7020B4
:100880007072696E74004261636B004D32340047D0
:1008900031205A313000473238004D323320257331
:1008A000004261642066696C656E616D652100645B
:1008B000656661756C740050617573696E672E2E84
:1008C0002E0050617573696E672E2E2E00465720DC
:1008D000696E666F00436F6E74726F6C0053706563
:1008E00065640054656D706572617475726500436E
:1008F00068616E67652066696C616D656E74004E37
:100900006F2053442063617264005072696E7420DA
:1009100066726F6D2053440053746F70207072695B
:100920006E74005061757365207072696E74004258
:1009300061636B00436172642072656D6F766564FC
:10094000004361726420696E736572746564002D82
:100950002D3A2D2D002D2D2D00534400205900013E
:1009600020007C3C3E5E2B3D3F2F5B5D3B2C2A22D2
:100970005C0020746F6F206C6F6E672065787472F6
:100980007573696F6E2070726576656E746564004C
:1009900020636F6C6420657874727573696F6E2064
:1009A00070726576656E74656400456E6473746F0D
:1009B0007073206869743A205A00205A3A00456ED4
:1009C0006473746F7073206869743A2059002059F9
:1009D0003A00456E6473746F7073206869743A20CE
:1009E000580020583A00656E6473746F7073206805
:1009F00069743A2000FFFFFFFFFFFFFFFFFFFFFFCB
:100A0000FFFFFFFFFFFFFFFFFFFFFFFFFFFFFFFFF6
:100A1000FFFFFFFFFFFFFFFFFFFFFFFFFFFFFFFFE6
:100A2000FFFFFFFFFFFFFFFFFFFFFFFFFFFFFFFFD6
:100A3000FFFFFFFFFF24F4BEECC7E536DF03D92636
:100A4000D397CD52C850C38CBE03BAAFB58EB19CFC
:100A5000ADD6A939A6C2A2709F409C2F993D96673A
:100A600093AD900B8E828B0F89B2866A8435821289
:100A700080027E027C127A31785F769A74E3723952
:100A8000719B6F096E816C056B93692A68CB6676E2
:100A9000652964E462A8617360465F205E015DE9D8
:100AA0005BD75ACC59C758C757CE56DA55EB5401C5
:100AB000541C533C5261518A50B84FEA4E204E5953
:100AC0004D974CD94B1E4B674AB34903495648AC26
:100AD0004705476246C14523458744EF435943C60E
:100AE000423542A6411A4190400940843F013F806F
:100AF0003E013E843D093D8F3C183CA33B2F3BBD4E
:100B00003A4D3ADE39713906399C383438CD376878
:100B1000370437A2364036E13582352535C9346E83
:100B2000341534BD3365330F33BB3267321432C2F0
:100B30003172312231D43086303930ED2FA32F5924
:100B40002F102FC82E802E3A2EF42DAF2D6B2D286E
:100B50002DE62CA42C632C232CE32BA52B672B290F
:100B60002BED2AB02A752A3A2A002AC7298E29563F
:100B7000291E29E728B0287A2845281028DC27A82C
:100B800027752742271027DE26AC267C264B261CFD
:100B900026EC25BD258F25612533250625D924ADD5
:100BA00024812456242B240024D623AC23822359C9
:100BB0002331230823E022B82291226A2243221DF6
:100BC00022F721D221AC21872163213E211A21F66F
:100BD00020D320B0208D206A20482026200420E346
:100BE0001FC21FA11F801F601F401F201F001FE189
:100BF0001EC21EA31E841E661E471E2A1E0C1EEE4B
:100C00001DD11DB41D971D7B1D5E1D421D261D0A95
:100C10001DEF1CD41CB81C9E1C831C681C4E1C346D
:100C20001C1A1C001CE61BCD1BB41B9B1B821B69E2
:100C30001B511B381B201B081BF01AD81AC11AA9FC
:100C40001A921A7B1A641A4E1A371A201A0A1AF4C0
:100C500019DE19C819B2199D19871972195D194839
:100C60001933191E190A19F518E118CD18B918A564
:100C70001891187D186A18561843182F181C18094F
:100C800018F617E417D117BF17AC179A17881776FD
:100C9000176417521740172E171D170B17FA16E96E
:100CA00016D716C616B516A51694168316731662B1
:100CB00016521642163116211611160116F115E2BA
:100CC00015D215C315B315A415941585157615679A
:100CD00015581549153A152C151D150E150015F149
:100CE00014E314D514C714B914AB149D148F1481D4
:100CF000147314651458144A143D142F1422141537
:100D0000140814FB13EE13E113D413C713BA13AD75
:100D100013A113941388137B136F13621356134A92
:100D2000133E133213251319130E130213F612EA8E
:100D300012DE12D312C712BC12B012A51299128E73
:100D400012831278126C12611256124B1240123634
:100D5000122B12201215120A120012F511EB11E0DB
:100D600011D611CB11C111B711AC11A21198118E6E
:100D70001184117A11701166115C11521148113FE2
:100D80001135112B11211118110E110511FB10F243
:100D900010E910DF10D610CD10C310BA10B110A892
:100DA000109F1096108D1084107B107210691060C7
:100DB0001058104F1046103E1035102C1024101BE8
:100DC0001013100A100210F90FF10FE90FE10FD8FC
:100DD0000FD00FC80FC00FB80FB00FA80FA00F98FB
:100DE0000F900F880F800F780F700F680F610F59E9
:100DF0000F510F490F420F3A0F330F2B0F230F1CC8
:100E00000F150F0D0F060FFE0EF70EF00EE80EE198
:100E10000EDA0ED30ECB0EC40EBD0EB60EAF0EA85C
:100E20000EA10E9A0E930E8C0E850E7E0E770E700E
:100E30000E6A0E630E5C0E550E4F0E480E410E3AB2
:100E40000E340E2D0E270E200E1A0E130E0D0E064A
:100E50000E000EF90DF30DED0DE60DE00DDA0DD3DC
:100E60000DCD0DC70DC10DBA0DB40DAE0DA80DA25F
:100E70000D9C0D960D900D8A0D840D7E0D780D72D2
:100E80000D6C0D660D600D5A0D540D4F0D490D433F
:100E90000D3D0D380D320D2C0D270D210D1B0D169E
:100EA0000D100D0A0D050DFF0CFA0CF40CEF0CE9FA
:100EB0000CE40CDE0CD90CD40CCE0CC90CC30CBE4B
:100EC0000CB90CB40CAE0CA90CA40C9F0C990C948E
:100ED0000C8F0C8A0C850C800C7A0C750C700C6BCA
:100EE0000C660C610C5C0C570C520C4D0C480C43FE
:100EF0000C3E0C390C350C300C2B0C260C210C1C28
:100F00000C170C130C0E0C090C040C000CFB0BF64C
:100F10000BF20BED0BE80BE40BDF0BDA0BD60BD16E
:100F20000BCD0BC80BC40BBF0BBB0BB60BB20BAD81
:100F30000BA90BA40BA00B9B0B970B920B8E0B8A90
:100F40000B850B810B7D0B780B740B700B6B0B6798
:100F50000B630B5F0B5A0B560B520B4E0B4A0B4697
:100F60000B410B3D0B390B350B310B2D0B290B2591
:100F70000B210B1C0B180B140B100B0C0B080B0488
:100F80000B000BFC0AF80AF50AF10AED0AE90AE57A
:100F90000AE10ADD0AD90AD50AD20ACE0ACA0AC665
:100FA0000AC20ABF0ABB0AB70AB30AAF0AAC0AA848
:100FB0000AA40AA10A9D0A990A960A920A8E0A8B25
:100FC0000A870A830A800A7C0A780A750A710A6EFF
:100FD0000A6A0A670A630A600A5C0A590A550A52D1
:100FE0000A4E0A4B0A470A440A400A3D0A390A36A1
:100FF0000A320A2F0A2C0A280A250A220A1E0A1B6C
:101000000A170A140A110A0E0A0A0A070A040A0031
:101010000AFD09FA09F709F309F009ED09EA09E6F9
:1010200009E309E009DD09DA09D609D309D009CDB8
:1010300009CA09C709C409C009BD09BA09B709B471
:1010400009B109AE09AB09A809A509A2099F099C24
:10105000099909950992098F098C098A09870984D8
:101060000981097E097B097809750972096F096C84
:101070000969096609630960095E095B0958095530
:101080000952094F094C094A094709440941093ED7
:10109000093C0939093609330930092E092B092879
:1010A000092509230920091D091B09180915091219
:1010B0000910090D090A090809050902090009FDB5
:1010C00008FA08F808F508F208F008ED08EB08E857
:1010D00008E508E308E008DE08DB08D908D608D3ED
:1010E00008D108CE08CC08C908C708C408C208BF80
:1010F00008BD08BA08B808B508B308B008AE08AB10
:1011000008A908A608A408A1089F089D089A08989D
:10111000089508930890088E088C08890887088528
:1011200008820880087D087B0879087608740872B0
:10113000086F086D086B0868086608640861085F36
:10114000085D085B0858085608540851084F084DB8
:10115000084B0848084608440842083F083D083B39
:1011600008390837083408320830082E082C0829B6
:101170000827082508230821081F081C081A081832
:10118000081608140812080F080D080B08090807AC
:1011900008050803080108FF07FC07FA07F807F627
:1011A00007F407F207F007EE07EC07EA07E807E69F
:1011B00007E407E207E007DE07DC07DA07D807D60F
:1011C00007D407D207D007CE07CC07CA07C807C67F
:1011D00007C407C207C007BE07BC07BA07B807B6EF
:1011E00007B407B207B007AE07AC07AA07A807A65F
:1011F00007A407A3074572723A204D494E54454D46
:1012000050003A204578747275646572207377696E
:101210007463686564206F66662E204D494E5445A0
:101220004D502074726967676572656420210045BE
:1012300072723A204D415854454D50003A2045783D
:10124000747275646572207377697463686564206D
:101250006F66662E204D415854454D50207472697A
:10126000676765726564202100202D20496E7661D4
:101270006C6964206578747275646572206E756D32
:10128000626572202100504944204175746F747565
:101290006E652066696E6973686564212050757497
:1012A00020746865206C617374204B702C204B692E
:1012B00020616E64204B6420636F6E7374616E7482
:1012C000732066726F6D2061626F766520696E743F
:1012D0006F20436F6E66696775726174696F6E2EF9
:1012E0006800504944204175746F74756E652066BE
:1012F00061696C6564212074696D656F7574002087
:10130000403A006F6B20543A006F6B20423A005015
:101310004944204175746F74756E65206661696C0F
:101320006564212054656D70657261747572652005
:10133000746F6F206869676800204B643A20002052
:101340004B693A2000204B703A200020436C6173B7
:101350007369632050494420002054753A200020CE
:101360004B753A2000206D61783A2000206D696E3F
:101370003A200020643A200020626961733A20001C
:1013800084002C019000270196002201A2001D017B
:10139000AE001801C0001301CC000E01DE000901EF
:1013A000F00004010201FF001401FA002C01F50015
:1013B0004401F0006201EB008001E600A401E100BD
:1013C000C801DC00F201D7001C02D2005202CD009D
:1013D0008802C800C402C3000603BE004E03B90061
:1013E0009C03B400F603AF005604AA00C204A50093
:1013F0003405A000B2059B003C069600CC06910087
:101400006E078C001C088700D008820090097D00C0
:101410005C0A78002E0B7300060C6E00EA0C690063
:10142000C80D6400AC0E5F008A0F5A0062105500B0
:101430003A11500000124B00C01246006E134100DA
:1014400010143C00A61437002A1532009C152D00FC
:10145000021628005C162300A4161E00E6161900CA
:101460001C1714004C170F0070170A008E17050088
:10147000A61700004D383420582059205A20450026
:1014800043616E6E6F7420656E7465722073756251
:101490006469723A20004D3234004D323320257396
:1014A000006175746F25692E67006572726F722016
:1014B00077726974696E6720746F2066696C650065
:1014C0004E6F74205344207072696E74696E6700A9
:1014D0002F005344207072696E74696E67206279C0
:1014E000746520002E0044656C6574696F6E20661B
:1014F00061696C65642C2046696C653A2000466918
:101500006C652064656C657465643A002E006F70CC
:10151000656E206661696C65642C2046696C653A6D
:10152000200057726974696E6720746F2066696C59
:10153000653A20002E006F70656E206661696C65EB
:10154000642C2046696C653A20002E006F70656E31
:10155000206661696C65642C2046696C653A2000E0
:1015600046696C652073656C65637465640020531F
:10157000697A653A200046696C65206F70656E6512
:10158000643A20002E006F70656E206661696C659C
:10159000642C2046696C653A20004E6F7720667295
:1015A0006573682066696C653A20004E6F77206429
:1015B0006F696E672066696C653A20002220706F43
:1015C00073002220706172656E743A220053554296
:1015D000524F5554494E452043414C4C2074617242
:1015E0006765743A2200747279696E6720746F209F
:1015F00063616C6C207375622D67636F6465206630
:10160000696C6573207769746820746F6F206D61F1
:101610006E79206C6576656C732E204D4158206C78
:101620006576656C2069733A005344206361726487
:10163000206F6B006F70656E526F6F74206661690A
:101640006C656400766F6C756D652E696E697420CB
:101650006661696C656400534420696E6974206634
:1016600061696C0046696C616D656E7420736574A8
:1016700074696E67733A2044697361626C656400D3
:101680002020204D32303020440046696C616D6569
:101690006E742073657474696E67733A0020440039
:1016A0002049002020204D33303120500050494443
:1016B0002073657474696E67733A00205A0020596C
:1016C0000020204D323036205800486F6D65206F65
:1016D000666673657420286D6D293A0020450020E8
:1016E0005A0020580020420020540020204D323063
:1016F00035205300416476616E63656420766172C3
:101700006961626C65733A20533D4D696E20666570
:1017100065647261746520286D6D2F73292C2054C7
:101720003D4D696E2074726176656C2066656564F6
:101730007261746520286D6D2F73292C20423D6DD8
:10174000696E696D756D207365676D656E74207463
:10175000696D6520286D73292C20583D6D6178696D
:101760006D756D205859206A65726B20286D6D2F3C
:1017700073292C20205A3D6D6178696D756D205A52
:10178000206A65726B20286D6D2F73292C202045EF
:101790003D6D6178696D756D2045206A65726B20BD
:1017A000286D6D2F73290020540020204D323034D5
:1017B000205300416363656C65726174696F6E3AB2
:1017C00020533D616363656C65726174696F6E2C53
:1017D00020543D7265747261637420616363656C4B
:1017E00065726174696F6E00204500205A002059AF
:1017F0000020204D3230312058004D6178696D75E0
:101800006D20416363656C65726174696F6E202839
:101810006D6D2F7332293A00204500205A0020595F
:101820000020204D3230332058004D6178696D75AD
:101830006D2066656564726174657320286D6D2F17
:1018400073293A00204500205A0020590020204DDD
:10185000393220580053746570732070657220759A
:101860006E69743A0048617264636F646564204411
:10187000656661756C742053657474696E67732056
:101880004C6F616465640053746F707065640050E0
:1018900072696E7465722073746F70706564206411
:1018A000756520746F206572726F72732E204669A1
:1018B0007820746865206572726F7220616E642092
:1018C000757365204D39393920746F2072657374D2
:1018D0006172742E202854656D7065726174757222
:1018E000652069732072657365742E2053657420BA
:1018F00069742061667465722072657374617274B4
:10190000696E6729004B494C4C4544005072696E22
:101910007465722068616C7465642E206B696C6CF0
:1019200028292063616C6C656421006F6B0052652F
:1019300073656E643A20002200556E6B6E6F776E91
:1019400020636F6D6D616E643A2022007A5F6D6175
:10195000783A20007A5F6D696E3A2000795F6D6198
:10196000783A2000795F6D696E3A2000785F6D618A
:10197000783A2000785F6D696E3A2000205A3A006C
:1019800020593A0020436F756E7420583A20002089
:10199000453A00205A3A0020593A00583A00464940
:1019A000524D574152455F4E414D453A4D61726C23
:1019B000696E204649524D574152455F5645525334
:1019C000494F4E3A322E302E3020534F5552434518
:1019D0005F434F44455F55524C3A687474702533E9
:1019E000412F2F6769746875622E636F6D2F627166
:1019F0002F4D61726C696E2050524F544F434F4CC3
:101A00005F56455253494F4E3A312E30204D414397
:101A100048494E455F545950453A4865706865736A
:101A2000746F732045585452554445525F434F5587
:101A30004E543A3120582D4649524D574152455F38
:101A40004C414E47554147453A454E20582D425549
:101A5000494C445F56455253494F4E3A2223343243
:101A60003922200A00486570686573746F73204FCF
:101A700066662E005265616479005072696E746901
:101A80006E672E2E2E0048656174696E6720646F44
:101A90006E652E0020573A0020453A00543A00481F
:101AA000656174696E672E2E2E002042403A002038
:101AB000403A00202F003A00205400202F002042FE
:101AC0003A00202F006F6B20543A002569206D6981
:101AD0006E2C20256920736563005072696E7469ED
:101AE0006E672E2E2E00507265737320746F2072F5
:101AF0006573756D6500456E642066696C65206C64
:101B000069737400426567696E2066696C65206C54
:101B1000697374004E6F206D6F7665005072696E48
:101B200074696E672E2E2E005761697420666F727D
:101B300020757365722E2E2E00536C6565702E2EE7
:101B40002E00256920686F757273202569206D69E4
:101B50006E7574657300446F6E65207072696E7483
:101B6000696E672066696C650053746F7070656498
:101B7000005072696E7465722073746F7070656462
:101B80002064756520746F206572726F72732E20E9
:101B900046697820746865206572726F7220616E84
:101BA0006420757365204D39393920746F20726552
:101BB00073746172742E202854656D70657261743F
:101BC0007572652069732072657365742E20536584
:101BD0007420697420616674657220726573746123
:101BE0007274696E6729004E6F204C696E65204ED5
:101BF000756D626572207769746820636865636BD0
:101C000073756D2C204C617374204C696E653A209D
:101C1000004E6F20436865636B73756D2077697440
:101C200068206C696E65206E756D6265722C204C43
:101C3000617374204C696E653A2000636865636B5C
:101C400073756D206D69736D617463682C204C61D0
:101C50007374204C696E653A20004C696E65204EA5
:101C6000756D626572206973206E6F74204C6173AC
:101C700074204C696E65204E756D6265722B312C37
:101C8000204C617374204C696E653A20004D3131EF
:101C90003000446F6E6520736176696E67206669F7
:101CA0006C652E006F6B004D3239005265616479AE
:101CB000004D363030004D3235002020506C616EC2
:101CC0006E657242756666657242797465733A2014
:101CD000002046726565204D656D6F72793A20006F
:101CE0004E6F7620323020323031352031343A3167
:101CF000373A3139004D61726C696E0020536F665E
:101D00007477617265205265736574002057617441
:101D10006368646F67205265736574002042726F58
:101D2000776E206F75742052657365740020457856
:101D30007465726E616C20526573657400506F77C4
:101D400065725570007374617274002200656E7163
:101D500075657565696E672022002200656E717574
:101D6000657565696E67202200FFFFFF0000A040D7
:101D70000000A04000000040000057430000524314
:101D800000003443000000000000000000000000DC
:101D9000000057430000524300003443000000009D
:101DA00000000000000000006563686F3A004572A3
:101DB000726F723A00646972206E6F7420666F757C
:101DC0006E64004E414E494E495459494E46CDCC61
:101DD000CC3D0AD7233C17B7D13877CC2B32959519
:101DE000E6241FB14F0A000020410000C842004015
:101DF0001C4620BCBE4CCA1B0E5AAEC59D74153085
:101E0000B4C3D0C311241FBECFEFD1E2DEBFCDBF1C
:101E100000E00CBFF89414BE88E10FB6F8948093EC
:101E20006000109260000FBE15E0A0E0B2E0E0E9B3
:101E3000FEEA01E00BBF02C007900D92AA3EB10777
:101E4000D9F725E1AAEEB5E001C01D92A131B20794
:101E5000E1F71DE1C2E0DEE100E006C022970109E2
:101E6000FE010BBF0E9486CFCE3FD10780E008075E
:101E7000A9F70E94AD130C9436D70C9400001F9262
:101E80000F920FB60F9211242F933F938F939F932E
:101E9000AF93BF938091EB059091EC05A091ED0578
:101EA000B091EE053091EA0523E0230F2D3720F4A1
:101EB0000196A11DB11D05C026E8230F0296A11DA4
:101EC000B11D2093EA058093EB059093EC05A09358
:101ED000ED05B093EE058091EF059091F005A0918E
:101EE000F105B091F2050196A11DB11D8093EF059A
:101EF0009093F005A093F105B093F205BF91AF91D7
:101F00009F918F913F912F910F900FBE0F901F9037
:101F100018952FB7F8946091EB057091EC058091BE
:101F2000ED059091EE052FBF08953FB7F89480918D
:101F3000EF059091F005A091F105B091F20526B55D
:101F4000A89B05C02F3F19F00196A11DB11D3FBFF1
:101F5000BA2FA92F982F8827820F911DA11DB11D7F
:101F6000BC01CD01660F771F881F991F660F771F71
:101F7000881F991F0895CF92DF92EF92FF92CF931F
:101F8000DF936B017C010E94950FEB01C114D1041A
:101F9000E104F104A9F00E94A8130E94950F6C1BA4
:101FA0007D0B683E734038F081E0C81AD108E10823
:101FB000F108C851DC4FC114D104E104F10459F710
:101FC000DF91CF91FF90EF90DF90CF900895019730
:101FD00039F0880F991F880F991F02970197F1F721
:101FE0000895789484B5826084BD84B5816084BD91
:101FF00085B5826085BD85B5816085BDEEE6F0E082
:10200000808181608083E1E8F0E0108280818260DD
:102010008083808181608083E0E8F0E0808181605E
:102020008083E1EBF0E0808184608083E0EBF0E08E
:10203000808181608083E1E9F0E08081826080833B
:10204000808181608083E0E9F0E08081816080832D
:10205000E1EAF0E08081826080838081816080831A
:10206000E0EAF0E0808181608083E1E2F1E080815C
:1020700082608083808181608083E0E2F1E0808102
:1020800081608083EAE7F0E08081846080838081E2
:10209000826080838081816080838081806880838A
:1020A0001092C10008951F93CF93DF93182FEB0177
:1020B00061E00E948711209729F460E0812F0E943F
:1020C000C511BAC0CF3FD10529F461E0812F0E942C
:1020D000C511B2C0412F50E0FA01E857FC4F4491BE
:1020E00050E0FA013197E231F10508F099C0EE585D
:1020F000FF4F0C945ECF84B5806884BDC7BD9CC083
:1021000084B5806284BDC8BD97C0E0E8F0E08081FE
:1021100080688083D0938900C09388008DC0E0E8F8
:10212000F0E0808180628083D0938B00C0938A002E
:1021300083C0E0E8F0E0808188608083D0938D00E8
:10214000C0938C0079C0E0EBF0E0808180688083F0
:10215000C093B30071C0E0EBF0E0808180628083C7
:10216000C093B40069C0E0E9F0E0808180688083BA
:10217000D0939900C09398005FC0E0E9F0E08081BF
:1021800080628083D0939B00C0939A0055C0E0E9A1
:10219000F0E0808188608083D0939D00C0939C0094
:1021A0004BC0E0EAF0E080818068808380818F7B93
:1021B0008083D093A900C093A8003EC0E0EAF0E07D
:1021C000808180628083D093AB00C093AA0034C02A
:1021D000E0EAF0E0808188608083D093AD00C09316
:1021E000AC002AC0E0E2F1E0808180688083D09377
:1021F0002901C093280120C0E0E2F1E080818062E3
:102200008083D0932B01C0932A0116C0E0E2F1E055
:10221000808188608083D0932D01C0932C010CC0F5
:10222000C038D1052CF460E0812F0E94C51104C094
:1022300061E0812F0E94C511DF91CF911F91089518
:1022400090E0FC013197E231F10508F05FC0EC57F6
:10225000FF4F0C945ECFE0E8F0E080818F778083C1
:102260000895E0E8F0E080818F7D80830895E0E8C4
:10227000F0E08081877F8083089584B58F7784BD67
:10228000089584B58F7D84BD0895E0EBF0E08081F2
:102290008F7780830895E0EBF0E080818F7D8083ED
:1022A0000895E0E9F0E080818F7780830895E0E988
:1022B000F0E080818F7D80830895E0E9F0E0808107
:1022C000877F80830895E0EAF0E080818F778083C4
:1022D0000895E0EAF0E080818F7D80830895E0EA50
:1022E000F0E08081877F80830895E0E2F1E08081E3
:1022F0008F7780830895E0E2F1E080818F7D808395
:102300000895E0E2F1E08081877F80830895CF9394
:10231000DF9390E0FC01E252FC4F2491FC01EC5C65
:10232000FB4F8491882371F190E0880F991FFC0185
:10233000E254FB4FA591B4918C559B4FFC01C59184
:10234000D49161110BC08FB7F8949C912095922382
:102350009C93E8812E2328838FBF14C0623061F4E0
:102360008FB7F8943C91922F909593239C93E8819A
:102370002E2B28838FBF06C08FB7F894EC912E2B9D
:102380002C938FBFDF91CF9108951F93CF93DF934D
:10239000C62F282F30E0F901E857FC4F8491F9014E
:1023A000E252FC4F1491F901EC5CFB4FD491DD2318
:1023B000C9F081110E9420112D2F30E0F901EE0F9C
:1023C000FF1FEC55FB4FA591B4918FB7F894C11145
:1023D00005C0EC9110951E231C9303C0EC911E2B9D
:1023E0001C938FBFDF91CF911F910895CF93DF93FF
:1023F000282F30E0F901E857FC4F8491F901E252AF
:10240000FC4FD491F901EC5CFB4FC491CC2399F0C3
:1024100081110E9420112C2F30E0F901EE0FFF1FD7
:10242000E657FB4FA591B491EC91DE2381E090E05B
:1024300021F480E002C080E090E0DF91CF91089528
:102440001F920F920FB60F9211240BB60F922F937B
:102450003F934F935F936F937F938F939F93AF932C
:10246000BF93EF93FF938091F7059091F805892B27
:1024700029F0E091F705F091F8051995FF91EF919A
:10248000BF91AF919F918F917F916F915F914F918C
:102490003F912F910F900BBE0F900FBE0F901F908A
:1024A00018951F920F920FB60F9211240BB60F9230
:1024B0002F933F934F935F936F937F938F939F934C
:1024C000AF93BF93EF93FF938091F9059091FA0535
:1024D000892B29F0E091F905F091FA051995FF9102
:1024E000EF91BF91AF919F918F917F916F915F918C
:1024F0004F913F912F910F900BBE0F900FBE0F90F9
:102500001F9018951F920F920FB60F9211240BB6C1
:102510000F922F933F934F935F936F937F938F937C
:102520009F93AF93BF93EF93FF938091FB0590919F
:10253000FC05892B29F0E091FB05F091FC0519952C
:10254000FF91EF91BF91AF919F918F917F916F918B
:102550005F914F913F912F910F900BBE0F900FBE47
:102560000F901F9018951F920F920FB60F92112483
:102570000BB60F922F933F934F935F936F937F937D
:102580008F939F93AF93BF93EF93FF938091FD053C
:102590009091FE05892B29F0E091FD05F091FE0553
:1025A0001995FF91EF91BF91AF919F918F917F917D
:1025B0006F915F914F913F912F910F900BBE0F90B4
:1025C0000FBE0F901F9018951F920F920FB60F928B
:1025D00011240BB60F922F933F934F935F936F93FA
:1025E0007F938F939F93AF93BF93EF93FF938091CC
:1025F000F3059091F405892B29F0E091F305F09112
:10260000F4051995FF91EF91BF91AF919F918F9133
:102610007F916F915F914F913F912F910F900BBEE2
:102620000F900FBE0F901F9018951F920F920FB62C
:102630000F9211240BB60F922F933F934F935F93FA
:102640006F937F938F939F93AF93BF93EF93FF937A
:102650008091F5059091F605892B29F0E091F5051B
:10266000F091F6051995FF91EF91BF91AF919F9170
:102670008F917F916F915F914F913F912F910F902B
:102680000BBE0F900FBE0F901F9018951F920F92C8
:102690000FB60F9211240BB60F922F933F934F93C7
:1026A0005F936F937F938F939F93AF93BF93EF93BA
:1026B000FF938091FF0590910006892B29F0E0910E
:1026C000FF05F09100061995FF91EF91BF91AF9131
:1026D0009F918F917F916F915F914F913F912F913A
:1026E0000F900BBE0F900FBE0F901F9018951F926A
:1026F0000F920FB60F9211240BB60F922F933F93A8
:102700004F935F936F937F938F939F93AF93BF93F9
:10271000EF93FF938091010690910206892B29F097
:10272000E0910106F09102061995FF91EF91BF919A
:10273000AF919F918F917F916F915F914F913F9159
:102740002F910F900BBE0F900FBE0F901F901895FA
:10275000089580E090E0089508950E94F10F0E948E
:10276000AC130E9441990E9459C280E090E0892BED
:1027700029F00E9400000E9459C2FBCF0E9459C25A
:10278000FDCFCF92DF92EF92FF920F931F93CF93E3
:10279000DF936C0141155105A9F0062F172FEA01AF
:1027A000E12CF12CD8016D918D01D601ED91FC91B8
:1027B0000190F081E02DC6011995E80EF91E2197D0
:1027C00089F702C0E12CF12CC701DF91CF911F9155
:1027D0000F91FF90EF90DF90CF90089561157105F4
:1027E00081F0FB0101900020E9F73197AF01461B12
:1027F000570BDC01ED91FC910280F381E02D1995DE
:10280000089580E090E00895DC01ED91FC91019045
:10281000F081E02D199508958230A9F028F48823DD
:1028200049F0813051F00895843021F1E8F085308D
:1028300039F1089510926E000895EFE6F0E080817E
:102840008D7F80830895E0E7F0E080818D7F808335
:1028500081E08093B000E1EBF0E08081887F8460CC
:1028600080831092B3000895E1E7F0E080818D7FCE
:1028700080830895E2E7F0E080818D7F8083089572
:10288000E3E7F0E080818D7F80830895CF93C82FA8
:1028900080910A028C1307C0E8EDF4E084919FEF69
:1028A00090930A0201C08FEF0E940C1460E08C2FFD
:1028B0000E94C511CF9108951F920F920FB60F92EB
:1028C00011240BB60F922F933F934F935F936F9307
:1028D0007F938F939F93AF93BF93EF93FF938091D9
:1028E000060690910706A0910806B0910906892B6B
:1028F0008A2B8B2B51F180910306E0910406F09115
:1029000005069081892780838091060690910706AD
:10291000A0910806B0910906181619061A061B069A
:10292000C4F48091060690910706A0910806B09124
:1029300009060197A109B10980930606909307063D
:10294000A0930806B093090604C080910A020E9471
:102950004614FF91EF91BF91AF919F918F917F911D
:102960006F915F914F913F912F910F900BBE0F9000
:102970000FBE0F901F9018950E946AD30E949ECFA1
:1029800008950E9436D00895CF93DF93EC0160E064
:102990008E810E94C51181E090E00E94E70F61E006
:1029A0008E810E94C51181E090E00E94E70F60E0F7
:1029B0008E810E94C51184E690E00E94E70FDF91AE
:1029C000CF910895AF92BF92CF92DF92EF92FF9294
:1029D0000F931F93CF93DF935C018C01095F1F4F0F
:1029E000C0E0D0E0C62ED12C780161E0F8018191E1
:1029F0008F010E948711B6010C2E02C07595679554
:102A00000A94E2F76170F70180810E94C511219656
:102A1000C430D10549F7C5010E94C414DF91CF919C
:102A20001F910F91FF90EF90DF90CF90BF90AF90EC
:102A30000895AF92BF92CF92DF92EF92FF920F93E1
:102A40001F93CF93DF935C018C01095F1F4FC0E0A0
:102A5000D0E0C62ED12C780161E0F80181918F0180
:102A60000E948711B6010C2E02C0759567950A94D5
:102A7000E2F76170F70180810E94C5112196C8308C
:102A8000D10549F7C5010E94C414DF91CF911F9170
:102A90000F91FF90EF90DF90CF90BF90AF9008958F
:102AA0001F93CF93DF93EC01162F642F8C810E942C
:102AB000C5118D818F3F19F060E00E94C5118F858F
:102AC00084FF05C0612FCE010E94191512C0812F0D
:102AD00090E0BC01759567957595679575956795B7
:102AE00075956795CE010E94E214612FCE010E9478
:102AF000E214DF91CF911F91089540E061E00E94C0
:102B0000501580ED97E00E94E70F0895443008F0DB
:102B100043E0FC012389421710F04FEF420FFC0104
:102B2000E40FF11D2489620F606840E00E94501597
:102B30000895FC016089262F2460208B6C6040E0A2
:102B40000E9450150895CF93DF93EC01423018F0A6
:102B50008F8588608F874B8B1C8A80E48D8B6E8B72
:102B600070E0605C7F4F6F8B222329F0413019F4B5
:102B70008F8584608F8780E593EC0E94E70F60E08B
:102B80008C810E94C51160E08E810E94C5118D81EB
:102B90008F3F19F060E00E94C5116F8564FD1DC074
:102BA00063E0CE010E94E21484E991E10E94E70F04
:102BB00063E0CE010E94E21484E991E10E94E70FF4
:102BC00063E0CE010E94E21486E990E00E94E70FE4
:102BD00062E0CE010E94E21419C0606240E0CE01C2
:102BE0000E94501584E991E10E94E70F6F856062B1
:102BF00040E0CE010E94501586E990E00E94E70F68
:102C00006F85606240E0CE010E9450156F85606262
:102C100040E0CE010E94501584E0888BCE010E94D6
:102C20009915CE010E947D1582E0898B40E066E017
:102C3000CE010E945015DF91CF9108956F927F923F
:102C40008F92AF92CF92EF920F931F93CF93DF9318
:102C5000CDB7DEB73C01162F842FF30144832583C3
:102C60000683E782C086A18682869E8593879F859C
:102C70009487988995879989968761E00E94871142
:102C8000F30185818F3F19F061E00E94871161E0B7
:102C9000F30186810E948711112319F0F301178631
:102CA00003C080E1F301878720E041E060E1C301D8
:102CB0000E94A315DF91CF911F910F91EF90CF90BC
:102CC000AF908F907F906F9008958F92AF92CF9238
:102CD000EF920F93DC0113961C921E921297EDE275
:102CE000F3E0ED93FC931F921F921F921F928C2C86
:102CF000AE2CC02EE22E042F2FEF462F61E00E9453
:102D00001E160F900F900F900F900F91EF90CF9095
:102D1000AF908F900895FC0161896E7F618B646034
:102D200040E00E9450150895EF92FF920F931F9379
:102D3000CF93DF937C01D42FC52F6770660F660F8A
:102D4000660F606440E00E9450150D2F1C2FC0E0FC
:102D5000D0E0D8016D918D01D701ED91FC910190EA
:102D6000F081E02DC70119952196C830D10589F76A
:102D7000DF91CF911F910F91FF90EF90089541E067
:102D80000E94501581E090E00895389A84E690E022
:102D9000A0E0B0E08093340690933506A093360609
:102DA000B093370608950F931F93CF93DF93EB01F2
:102DB000142F022F482F60E084E196E00E948615D0
:102DC000612F84E196E00E94041411E1FE016491F8
:102DD0006623A9F0111117C007C060E284E196E0F4
:102DE0000E940414C150C9F7602F84E196E00E944C
:102DF000041460E284E196E00E9404140BC01123E5
:102E000099F3C12FEACF84E196E00E940414219641
:102E10001150DCCFDF91CF911F910F910895FF9258
:102E20000F931F93CF93DF93F62E172FC42F022FEC
:102E3000482F60E084E196E00E9486156C2F84E1C3
:102E400096E00E940414CF2DD12F11E169916623E1
:102E5000A9F0111117C007C060E284E196E00E945A
:102E60000414C150C9F7602F84E196E00E94041455
:102E700060E284E196E00E9404140AC0112399F3F1
:102E8000C12FEACF84E196E00E9404141150DECFF6
:102E9000DF91CF911F910F91FF900895682F84E1EA
:102EA00096E00E9404140895BC0184E196E00E941B
:102EB000EE13089584E196E00E947D150895CF9366
:102EC000DF93CDB7DEB7C054D1090FB6F894DEBF9B
:102ED0000FBECDBF88E0E4EBF2E0DE01D9960190B1
:102EE0000D928A95E1F788E0ECEBF2E0DE01D196F5
:102EF00001900D928A95E1F788E0E4ECF2E0DE01C2
:102F0000999601900D928A95E1F788E0ECECF2E059
:102F1000DE01919601900D928A95E1F788E0E4ED4B
:102F2000F2E0DE01599601900D928A95E1F788E072
:102F3000ECEDF2E0DE01519601900D928A95E1F7F9
:102F400088E0E4EEF2E0DE01199601900D928A9598
:102F5000E1F788E0ECEEF2E0DE01119601900D92CF
:102F60008A95E1F720E044E064E184E196E00E9484
:102F7000A315AE01475C5F4F60E084E196E00E94DC
:102F80009416AE014F5C5F4F61E084E196E00E94D1
:102F90009416AE01475D5F4F62E084E196E00E94C7
:102FA0009416AE014F5D5F4F63E084E196E00E94AE
:102FB0009416AE01475E5F4F64E084E196E00E94A4
:102FC0009416AE014F5E5F4F65E084E196E00E948B
:102FD0009416AE01475F5F4F66E084E196E00E9481
:102FE0009416AE014F5F5F4F67E084E196E00E9468
:102FF000941684E196E00E948B1684E196E00E948C
:103000007D15C05CDF4F0FB6F894DEBF0FBECDBF9D
:10301000DF91CF91089586B186FB882780F991E0F2
:103020008927349B8260329B84600895482F84E115
:1030300096E00E948615089580913906109239060F
:10304000089580913F0610923F06089580913806BA
:103050001092380608951092390610923F06109289
:103060003806089587E693E390934A0680934906CD
:103070000E942B18089590934A0680934906109257
:10308000300610923E0610923D060E942B180895BD
:103090008EE193E20E943B180895CF93DF938091D5
:1030A000670690916806009761F483E492E00E94BD
:1030B000BE14EC010E9488C6D0936806C0936706D0
:1030C00002C00E9443C98FEF80932E0610923E06E5
:1030D00010923D0680916706909168060E94E4C8B0
:1030E00082E0809354068BE598E20E943B18DF91C2
:1030F000CF91089586EA99E10E943B1808958EE8E1
:103100009AE10E943B1808958DEC9CECACECBDE379
:103110008093560690935706A0935806B09359068D
:1031200086E29FE10E943B18089580E090E0A0E8CD
:10313000BFE38093560690935706A0935806B0932A
:10314000590686E29FE10E943B18089580E090E0D6
:10315000A0E2B1E48093560690935706A0935806D8
:10316000B093590686E29FE10E943B1808958EE6CF
:103170009CE10E943B1808958AEC9DE10E943B1857
:10318000089510924B068FE091E20E943B1808953B
:10319000FC0119950E942B180895FC0119950E94B5
:1031A0002B18089590934A06809349061092300692
:1031B00010923E0610923D060E942B18089590939F
:1031C0004A068093490610922F0682E080935406A7
:1031D0000E942B18089581E080934B060E94890F6E
:1031E000DC01CB018C509E4FAF4FBF4F80935006F8
:1031F00090935106A0935206B09353068EE992E342
:1032000090934A06809349060E942B18089581E006
:1032100080934B060E94890FDC01CB018C509E4F9E
:10322000AF4FBF4F8093500690935106A093520624
:10323000B093530685ED91E390934A068093490637
:103240000E942B18089581E080934B060E94890FFD
:10325000DC01CB018C509E4FAF4FBF4F8093500687
:1032600090935106A0935206B09353068CE091E3DD
:1032700090934A06809349060E942B18089581E096
:1032800080934B060E94890FDC01CB018C509E4F2E
:10329000AF4FBF4F8093500690935106A0935206B4
:1032A000B09353068AE690E390934A0680934906CA
:1032B0000E942B18089586E49AE390934A0680931F
:1032C00049060E942B18089510923E0610923D0662
:1032D0008EEE99E390934A06809349060E942B183C
:1032E000089510923E0610923D0682ED90E0909374
:1032F000A60E8093A50E86E899E390934A068093E4
:1033000049060E942B18089581E0809355060E947B
:103310007119089582E0809355060E9471190895ED
:103320000E940B1880933C0680933B0610923A064D
:10333000089581E080933A0608950E940B188093C7
:10334000420680934106109240060895FF920F9323
:103350001F93CF93DF9381E08093400680913D06D9
:1033600090913E068130904820F010923E061092D7
:103370003D0680913D0690913E0699230CF40396FC
:1033800095958795959587952091300630E0821721
:10339000930714F48093300680915406823031F400
:1033A0000E945A1781E0809354060BC00E941C189B
:1033B000811104C00E942118882319F081E08093B4
:1033C00054061091300600E0C7E0D0E0F12C111156
:1033D00037C0809154068130E1F480913D06909190
:1033E0003E0699230CF403969595879595958795B8
:1033F000892B41F423E043E066E878E0802F0E94C7
:10340000D31607C023E040E266E878E0802F0E94F0
:10341000D31680913D0690913E0699230CF40396B5
:103420009595879595958795892B09F041C00E94C0
:1034300026188823E9F18FED97E20E94C81868C02A
:103440001130B1F5809154068130E1F480913D0650
:1034500090913E0699230CF4039695958795959542
:103460008795019741F420E24EE36BE778E0802FE7
:103470000E94D31607C020E240E26BE778E0802F7D
:103480000E94D31680913D0690913E0699230CF43C
:1034900003969595879595958795019749F40E9490
:1034A0002618882329F08EE09BE20E94CD1830C0B8
:1034B00020913D0630913E062830310524F0D0930E
:1034C0003E06C0933D0620913D0630913E063323D3
:1034D00014F42D5F3F4F3595279535952795B90104
:1034E00077274091300650E04C5F5F4F64177507B7
:1034F00044F01DEF120F109330060E949D190F2DFE
:1035000066CF0E949D190F5F1F5F043008F45FCFE4
:10351000DF91CF911F910F91FF900895FF920F932C
:103520001F93CF93DF9381E08093400680913D0607
:1035300090913E068130904820F010923E06109205
:103540003D0680913D0690913E0699230CF403962A
:1035500095958795959587952091300630E082174F
:10356000930714F48093300680915406823031F42E
:103570000E945A1781E0809354060BC00E941C18C9
:10358000811104C00E942118882319F081E08093E2
:1035900054061091300600E0C3E1D0E0F12C111187
:1035A00038C0809154068130E1F480913D069091BD
:1035B0003E0699230CF403969595879595958795E6
:1035C000892B41F423E043E06AE578E0802F0E94F4
:1035D000D31607C023E040E26AE578E0802F0E941E
:1035E000D31680913D0690913E0699230CF40396E4
:1035F0009595879595958795892B09F07EC00E94B2
:103600002618882309F479C088E498E10E94C81834
:103610005FC11130C1F5809154068130E1F4809191
:103620003D0690913E0699230CF403969595879557
:1036300095958795019741F42EE74EE361E578E093
:10364000802F0E94D31607C02EE740E261E578E0A4
:10365000802F0E94D31680913D0690913E069923BB
:103660000CF403969595879595958795019709F0A4
:103670007EC00E942618882309F479C081EC98E165
:103680000E94D21825C11230C1F5809154068130B4
:10369000E1F480913D0690913E0699230CF4039647
:1036A0009595879595958795029741F42EE74EE37A
:1036B00067E478E0802F0E94D31607C02EE740E22F
:1036C00067E478E0802F0E94D31680913D069091A8
:1036D0003E0699230CF403969595879595958795C5
:1036E000029709F0EDC00E942618882309F4E8C06B
:1036F0008EE69CE10E94D218EBC01330C1F5809198
:1037000054068130E1F480913D0690913E06992364
:103710000CF403969595879595958795039741F4B5
:1037200020E24EE36BE378E0802F0E94D31607C0BF
:1037300020E240E26BE378E0802F0E94D316809174
:103740003D0690913E0699230CF403969595879536
:1037500095958795039709F083C00E9426188823C2
:1037600009F47EC081EB9CE20E94CD18B1C020918B
:10377000A50E3091A60E2B303105D4F1143009F08E
:103780006FC0809154068130E1F480913D069091A4
:103790003E0699230CF40396959587959595879504
:1037A000049741F420E24EE362E378E0802F0E9428
:1037B000D31607C020E240E262E378E0802F0E9447
:1037C000D31680913D0690913E0699230CF4039602
:1037D0009595879595958795049709F041C00E9426
:1037E00026188823E9F18AE098E20E94CD1870C07B
:1037F0001430B1F5809154068130E1F480913D069A
:1038000090913E0699230CF403969595879595958E
:103810008795049741F420E24EE36AE278E0802F36
:103820000E94D31607C020E240E26AE278E0802FCF
:103830000E94D31680913D0690913E0699230CF488
:1038400003969595879595958795049749F40E94D9
:103850002618882329F085EE97E20E94CD1838C0FB
:1038600080913D0690913E06449724F0D0933E0609
:10387000C0933D0620913D0630913E06332314F45B
:103880002D5F3F4F3595279535952795B9017727BA
:103890004091300650E04C5F5F4F6417750744F06D
:1038A0001DEF120F109330060E949D190F2D77CE39
:1038B0000E949D190F5F1F5F043008F470CE08C08E
:1038C0008091A50E9091A60E0B970CF057CFC8CF04
:1038D000DF91CF911F910F91FF900895FF920F9369
:1038E0001F93CF93DF9381E08093400680913D0644
:1038F00090913E068130904820F010923E06109242
:103900003D0680913D0690913E0699230CF4039666
:1039100095958795959587952091300630E082178B
:10392000930714F48093300680915406823031F46A
:103930000E945A1781E0809354060BC00E941C1805
:10394000811104C00E942118882319F081E080931E
:1039500054061091300600E0CFE0D0E0F12C1111B8
:1039600038C0809154068130E1F480913D069091F9
:103970003E0699230CF40396959587959595879522
:10398000892B41F423E043E061E078E0802F0E943E
:10399000D31607C023E040E261E078E0802F0E9468
:1039A000D31680913D0690913E0699230CF4039620
:1039B0009595879595958795892B09F07DC00E94EF
:1039C0002618882309F478C08FE798E10E94C81868
:1039D000DBC01130C1F5809154068130E1F4809153
:1039E0003D0690913E0699230CF403969595879594
:1039F00095958795019741F420E24EE367EF77E0D4
:103A0000802F0E94D31607C020E240E267EF77E0E4
:103A1000802F0E94D31680913D0690913E069923F7
:103A20000CF403969595879595958795019709F0E0
:103A30007BC00E942618882309F476C083EF97E0A4
:103A40000E949698A1C01230B9F580915406813039
:103A5000E1F480913D0690913E0699230CF4039683
:103A60009595879595958795029741F420E24EE3C9
:103A700062EE77E0802F0E94D31607C020E240E27A
:103A800062EE77E0802F0E94D31680913D069091E0
:103A90003E0699230CF40396959587959595879501
:103AA000029709F041C00E9426188823E9F18EEDA3
:103AB00097E00E94969868C01330B1F58091540643
:103AC0008130E1F480913D0690913E0699230CF4FB
:103AD00003969595879595958795039741F42EE7DD
:103AE0004EE36AED77E0802F0E94D31607C02EE7E1
:103AF00040E26AED77E0802F0E94D31680913D0668
:103B000090913E0699230CF403969595879595958B
:103B10008795039749F40E942618882329F08AEC98
:103B20009DE10E94D21830C020913D0630913E06A2
:103B30002031310524F0D0933E06C0933D062091FC
:103B40003D0630913E06332314F42D5F3F4F3595EB
:103B5000279535952795B90177274091300650E094
:103B60004C5F5F4F6417750744F01DEF120F109301
:103B700030060E949D190F2DF2CE0E949D190F5FF5
:103B80001F5F043008F4EBCEDF91CF911F910F91AE
:103B9000FF900895FF920F931F93CF93DF9381E0DF
:103BA0008093400680913D0690913E06813090487A
:103BB00020F010923E0610923D0680913D069091B5
:103BC0003E0699230CF403969595879595958795D0
:103BD0002091300630E08217930714F4809330066A
:103BE00080915406823031F40E945A1781E080930C
:103BF00054060BC00E941C18811104C00E94211899
:103C0000882319F081E0809354061091300600E07B
:103C1000CFE0D0E0F12C111138C0809154068130F2
:103C2000E1F480913D0690913E0699230CF40396B1
:103C30009595879595958795892B41F423E043E0E9
:103C400065ED77E0802F0E94D31607C023E040E2A5
:103C500065ED77E0802F0E94D31680913D0690910C
:103C60003E0699230CF4039695958795959587952F
:103C7000892B09F07DC00E942618882309F478C09A
:103C800087EB98E10E94C818DBC01130C1F5809124
:103C900054068130E1F480913D0690913E069923CF
:103CA0000CF403969595879595958795019741F422
:103CB00020E24EE36BEC77E0802F0E94D31607C022
:103CC00020E240E26BEC77E0802F0E94D3168091D7
:103CD0003D0690913E0699230CF4039695958795A1
:103CE00095958795019709F07BC00E942618882337
:103CF00009F476C086EA98E10E94CD18A1C012307E
:103D0000B9F5809154068130E1F480913D0690919F
:103D10003E0699230CF4039695958795959587957E
:103D2000029741F420E24EE362EC77E0802F0E949C
:103D3000D31607C020E240E262EC77E0802F0E94B9
:103D4000D31680913D0690913E0699230CF403967C
:103D50009595879595958795029709F041C00E94A2
:103D600026188823E9F185E998E10E94CD1868C0FA
:103D70001330B1F5809154068130E1F480913D0615
:103D800090913E0699230CF4039695958795959509
:103D90008795039741F420E24EE367EB77E0802FAD
:103DA0000E94D31607C020E240E267EB77E0802F45
:103DB0000E94D31680913D0690913E0699230CF403
:103DC00003969595879595958795039749F40E9455
:103DD0002618882329F084E898E10E94CD1830C085
:103DE00020913D0630913E062031310524F0D093DC
:103DF0003E06C0933D0620913D0630913E0633239A
:103E000014F42D5F3F4F3595279535952795B901CA
:103E100077274091300650E04C5F5F4F641775077D
:103E200044F01DEF120F109330060E949D190F2DC4
:103E3000F2CE0E949D190F5F1F5F043008F4EBCE95
:103E4000DF91CF911F910F91FF900895FF920F93F3
:103E50001F93CF93DF9381E08093400680913D06CE
:103E600090913E068130904820F010923E061092CC
:103E70003D0680913D0690913E0699230CF40396F1
:103E800095958795959587952091300630E0821716
:103E9000930714F48093300680915406823031F4F5
:103EA0000E945A1781E0809354060BC00E941C1890
:103EB000811104C00E942118882319F081E08093A9
:103EC0005406C0913006D0E00F2EF5E0FF2EF02D05
:103ED00013E000E0C11138C0809154068130E1F454
:103EE00080913D0690913E0699230CF4039695959A
:103EF000879595958795892B41F4212F412F62EB6A
:103F000077E08D2F0E94D31607C0212F40E262EB8D
:103F100077E08D2F0E94D31680913D0690913E064A
:103F200099230CF403969595879595958795892BFC
:103F300009F07EC00E942618882309F479C08CEB12
:103F400098E10E94C81865C1C130C1F5809154063E
:103F50008130E1F480913D0690913E0699230CF466
:103F600003969595879595958795019741F42EE74A
:103F70004EE36BEA77E08D2F0E94D31607C02EE741
:103F800040E26BEA77E08D2F0E94D31680913D06C8
:103F900090913E0699230CF40396959587959595F7
:103FA0008795019709F00CC10E942618882309F40F
:103FB00007C18BEE98E10E94D2182BC1C230C1F527
:103FC000809154068130E1F480913D0690913E0647
:103FD00099230CF403969595879595958795029767
:103FE00041F42EE74EE364EA77E08D2F0E94D3166A
:103FF00007C02EE740E264EA77E08D2F0E94D316D7
:1040000080913D0690913E0699230CF40396959578
:10401000879595958795029709F0E5C00E94261827
:10402000882309F4E0C087E099E10E94D218F1C02A
:1040300020E030E040E251E460915606709157066E
:1040400080915806909159060E945ECB88230CF00F
:1040500072C0C330C1F5809154068130E1F4809183
:104060003D0690913E0699230CF40396959587950D
:1040700095958795039741F42EE74EE36DE977E038
:104080008D2F0E94D31607C02EE740E26DE977E03E
:104090008D2F0E94D31680913D0690913E06992364
:1040A0000CF403969595879595958795039709F058
:1040B000ACC00E942618882309F4A7C083E299E1C6
:1040C0000E94D218A6C0C430C1F580915406813038
:1040D000E1F480913D0690913E0699230CF40396FD
:1040E0009595879595958795049741F42EE74EE32E
:1040F00064E977E08D2F0E94D31607C02EE740E2D7
:1041000064E977E08D2F0E94D31680913D0690914F
:104110003E0699230CF4039695958795959587957A
:10412000049769F40E942618882359F08FE399E1D7
:104130000E94D2186EC0E12F05C0EF2D03C0EF2DF5
:1041400001C0EF2DF0E060913D0670913E067723AF
:1041500014F46D5F7F4F75956795759567956E172C
:104160007F074CF0EE0FFF1FEE0FFF1F3197F0930C
:104170003E06E0933D0660913D0670913E06772332
:1041800014F46D5F7F4F7595679575956795DB01A5
:10419000BB27E0913006F0E03496AE17BF0744F03D
:1041A000CDEFC60FC09330060E949D19D02F92CE3E
:1041B0000E949D19DF5FCF5FD43008F48BCE29C0F9
:1041C00020E030E040E251E46091560670915706DD
:1041D00080915806909159060E945ECB88230CF47A
:1041E00072CFE12FAFCF20E030E040E251E46091A8
:1041F00056067091570680915806909159060E9474
:104200005ECB882324F0E12F9DCFEF2D9BCFEF2DA8
:1042100099CFDF91CF911F910F91FF900895FF9259
:104220000F931F93CF93DF9381E08093400680919B
:104230003D0690913E068130904820F010923E0657
:1042400010923D0680913D0690913E0699230CF414
:10425000039695958795959587952091300630E042
:104260008217930714F480933006809154068230AD
:1042700031F40E945A1781E0809354060BC00E94CB
:104280001C18811104C00E942118882319F081E0B4
:10429000809354061091300600E0CBE0D0E0F12C82
:1042A000111138C0809154068130E1F480913D06AF
:1042B00090913E0699230CF40396959587959595D4
:1042C0008795892B41F423E043E060E877E0802F75
:1042D0000E94D31607C023E040E260E877E0802F19
:1042E0000E94D31680913D0690913E0699230CF4CE
:1042F00003969595879595958795892B09F07BC0B1
:104300000E942618882309F476C08FE798E10E945E
:10431000C818A1C01130B9F5809154068130E1F47C
:1043200080913D0690913E0699230CF40396959555
:10433000879595958795019741F42EE74EE36BE7B6
:1043400077E0802F0E94D31607C02EE740E26BE78C
:1043500077E0802F0E94D31680913D0690913E0613
:1043600099230CF4039695958795959587950197D4
:1043700009F041C00E9426188823E9F184E899E1F8
:104380000E94D21868C01230B1F580915406813075
:10439000E1F480913D0690913E0699230CF403963A
:1043A0009595879595958795029741F42EE74EE36D
:1043B00064E777E0802F0E94D31607C02EE740E223
:1043C00064E777E0802F0E94D31680913D0690919C
:1043D0003E0699230CF403969595879595958795B8
:1043E000029749F40E942618882329F08AE899E167
:1043F0000E94D21830C020913D0630913E062C30EC
:10440000310524F0D0933E06C0933D0620913D0631
:1044100030913E06332314F42D5F3F4F3595279599
:1044200035952795B90177274091300650E04C5FCC
:104430005F4F6417750744F01DEF120F109330069D
:104440000E949D190F2D2CCF0E949D190F5F1F5F99
:10445000043008F425CFDF91CF911F910F91FF9089
:1044600008950F931F93CF93DF9381E080934006CD
:1044700080913D0690913E068130904820F0109248
:104480003E0610923D0680913D0690913E0699238E
:104490000CF4039695958795959587952091300610
:1044A00030E08217930714F480933006809154060D
:1044B000823031F40E945A1781E0809354060BC079
:1044C0000E941C18811104C00E942118882319F031
:1044D00081E0809354061091300600E0C7E0D0E000
:1044E000111139C0809154068130E1F480913D066C
:1044F00090913E0699230CF4039695958795959592
:104500008795892B41F423E043E06BE577E0802F2A
:104510000E94D31607C023E040E26BE577E0802FCE
:104520000E94D31620913D0630913E06332314F4A9
:104530002D5F3F4F3595279535952795232B09F00E
:1045400075C00E942618882309F470C081EC98E198
:104550000E94C8186EC010922E111130B1F58091D2
:1045600054068130E1F480913D0690913E069923F6
:104570000CF403969595879595958795019741F449
:1045800020E24EE36CE477E0802F0E94D31607C050
:1045900020E240E26CE477E0802F0E94D316809105
:1045A0003D0690913E0699230CF4039695958795C8
:1045B00095958795019749F40E942618882329F03C
:1045C00087E497E00E94969834C020913D06309190
:1045D0003E062830310524F0D0933E06C0933D06B8
:1045E00020913D0630913E06332314F42D5F3F4F5A
:1045F0003595279535952795B90177274091300650
:1046000050E04C5F5F4F6417750744F01DEF120FC9
:10461000109330060E949D1900E062CF0E949D1900
:104620000F5F1F5F043008F45BCF03C010922E11A0
:10463000CCCFDF91CF911F910F9108954F925F9250
:104640007F928F929F92AF92BF92CF92EF92FF9202
:104650000F931F93CF93DF9381E080934006809167
:104660003D0690913E068130904820F010923E0623
:1046700010923D0680913D0690913E0699230CF4E0
:10468000039695958795959587952091300630E00E
:104690008217930714F48093300680915406823079
:1046A00031F40E945A1781E0809354060BC00E9497
:1046B0001C18811104C00E942118882319F081E080
:1046C0008093540610913006C12C0F2EFBE64F2E1E
:1046D000F1E15F2EF02D992493946894BB24B1F8F6
:1046E000CCE6D1E10F2EFAECEF2EF3E1FF2EF02D08
:1046F000A12C111138C0809154068130E1F48091D1
:104700003D0690913E0699230CF403969595879566
:1047100095958795892B41F423E043E06FE279E09A
:104720008C2D0E94D31607C023E040E26FE279E0AF
:104730008C2D0E94D31680913D0690913E069923C0
:104740000CF403969595879595958795892B09F097
:10475000A6C20E942618882309F4A1C28FED97E211
:104760000E94C818A9C28881882309F4C3C0F70130
:104770008081882309F483C0F20180818823D1F1EC
:104780001130D1F5809154068130E1F480913D06DD
:1047900090913E0699230CF40396959587959595EF
:1047A0008795019741F420E24EE363E279E08C2D96
:1047B0000E94D31607C020E240E263E279E08C2D2C
:1047C0000E94D31680913D0690913E0699230CF4E9
:1047D00003969595879595958795019709F064C2FD
:1047E0000E942618882309F45FC286E498E20E949A
:1047F000CD1862C2892C01C08B2C81123DC08091E2
:1048000054068130F9F480913D0690913E0699233B
:104810000CF403969595879595958795282D30E00E
:104820008217930741F42EE74EE368E179E08C2D7F
:104830000E94D31607C02EE740E268E179E08C2D94
:104840000E94D31620913D0630913E06332314F486
:104850002D5F3F4F3595279535952795482D50E08D
:104860002417350749F40E942618882329F08AE77F
:1048700098E10E94D21820C201E0080D79C01130E1
:1048800009F06DC0809154068130E1F480913D06BD
:1048900090913E0699230CF40396959587959595EE
:1048A0008795019741F42EE74EE36AE079E08C2D7D
:1048B0000E94D31607C02EE740E26AE079E08C2D13
:1048C0000E94D31680913D0690913E0699230CF4E8
:1048D00003969595879595958795019709F041C021
:1048E0000E942618882309F43EC08DE498E10E94B6
:1048F000D218E2C11130C9F5809154068130E1F43B
:1049000080913D0690913E0699230CF4039695956F
:10491000879595958795019741F420E24EE36FEFD7
:1049200078E08C2D0E94D31607C020E240E26FEFA2
:1049300078E08C2D0E94D31680913D0690913E0622
:1049400099230CF4039695958795959587950197EE
:1049500071F40E9426188111AFC10B2D09C00B2DD7
:1049600007C00B2D05C00B2D03C00B2D01C00B2D57
:104970000E941863811105C0F2018081882309F427
:10498000C5C001133DC0809154068130F9F4809177
:104990003D0690913E0699230CF4039695958795D4
:1049A00095958795202F30E08217930741F420E2F8
:1049B0004EE36FEE78E08C2D0E94D31607C020E204
:1049C00040E26FEE78E08C2D0E94D31620913D06D8
:1049D00030913E06332314F42D5F3F4F35952795D4
:1049E00035952795802F90E02817390749F40E94C4
:1049F0002618882329F08FE298E20E94CD185CC126
:104A000077247394700E71123DC0809154068130EA
:104A1000F9F480913D0690913E0699230CF403969B
:104A20009595879595958795272D30E08217930763
:104A300041F42EE74EE363EE78E08C2D0E94D3160E
:104A400007C02EE740E263EE78E08C2D0E94D3167B
:104A500020913D0630913E06332314F42D5F3F4FE5
:104A60003595279535952795872D90E02817390797
:104A700049F40E942618882329F081E799E10E94D1
:104A8000D2181AC16894772471F8700E71123CC064
:104A9000809154068130F9F480913D0690913E0654
:104AA00099230CF403969595879595958795272DD1
:104AB00030E08217930741F42EE74EE36DED78E086
:104AC0008C2D0E94D31607C02EE740E26DED78E0F2
:104AD0008C2D0E94D31680913D0690913E0699231D
:104AE0000CF403969595879595958795272D30E03D
:104AF0008217930749F40E942618882329F084E638
:104B000099E10E94D218D8C00D5F40C001133DC08A
:104B1000809154068130F9F480913D0690913E06D3
:104B200099230CF403969595879595958795202F55
:104B300030E08217930741F42EE74EE365ED78E00D
:104B40008C2D0E94D31607C02EE740E265ED78E079
:104B50008C2D0E94D31620913D0630913E063323C2
:104B600014F42D5F3F4F3595279535952795802F68
:104B700090E02817390749F40E942618882329F065
:104B80008FE798E10E94D21897C00F5F011344C0CD
:104B9000809154068130F9F480913D0690913E0653
:104BA00099230CF403969595879595958795202FD5
:104BB00030E08217930741F420E24EE36DEC78E099
:104BC0008C2D0E94D31607C020E240E26DEC78E005
:104BD0008C2D0E94D31620913D0630913E06332342
:104BE00014F42D5F3F4F3595279535952795402F28
:104BF00050E02417350781F40E942618882361F0BD
:104C00008BE599E190934A068093490610922F060E
:104C100082E08093540650C088248394800E882DAF
:104C200090E020913D0630913E06332314F42D5F31
:104C30003F4F3595279535952795281739074CF01F
:104C4000880F991F880F991F019790933E068093B4
:104C50003D0620913D0630913E06332314F42D5F2E
:104C60003F4F3595279535952795A9015527809173
:104C7000300690E004964817590744F01DEF120FD4
:104C8000109330060E949D19CA2C33CD0E949D19A5
:104C9000C3941F5FF3E0FC1508F02BCD0DC0888195
:104CA000811104C00B2D64CE8B2CE6CDF7018081E1
:104CB000811162CD0B2D5CCEDF91CF911F910F91B1
:104CC000FF90EF90CF90BF90AF909F908F907F908C
:104CD0005F904F90089510924B06089581E0809365
:104CE0004B060895E3E7F0E08081816080830E94B5
:104CF00090190E949D190895CF93DF930E945F172A
:104D000060E08FE10E94871160E081E20E948711DC
:104D1000469A449A60E083E20E948711429A60E0DA
:104D200081E30E9487118FB7F894EBE0F1E0908166
:104D3000916090838FBF80910901809581708093ED
:104D40002C0683E08093200189E18093210187E094
:104D50008093290180ED809328010E94722687E6C6
:104D600093E390934A068093490610924806109266
:104D700047060E94890F60935006709351068093F6
:104D80005206909353060E94890F60934C067093CD
:104D90004D0680934E0690934F060E94890F6093B4
:104DA00043067093440680934506909346061092FE
:104DB0004B060E9490190E941C180E949D190E9487
:104DC000211810923E0610923D060E942618A2E37A
:104DD000B3E09CE4E0ECF0E0C6ECD0E0808185FF3D
:104DE000FDCF98839D919111F9CFE0ECF0E08081A7
:104DF00085FFFDCF8AE08093C600DF91CF910895B3
:104E000080932F0682E0809354060895880F991F9F
:104E1000880F991F880F991FA0E0B0E08093340697
:104E200090933506A0933606B09337060895809385
:104E30005406089520913106211107C044E150E045
:104E4000BC018BE092E00E9424D4089520913106A9
:104E5000211107C044E150E0BC018BE092E00E94C8
:104E60009ED308950F931F93CF93C82F809109016C
:104E70008095817090912C06981731F182E0809393
:104E80005406809109018095817080932C060E94C0
:104E90005F1780912C06882361F089E691E10E94DA
:104EA000507C81E499E00E94262782E0809354069A
:104EB0000BC089E691E10E94687D84E399E00E943D
:104EC000262782E0809354068091470690914806F9
:104ED0008756934361F080914B06811108C0809101
:104EE0003906811104C080913F06882381F00E9419
:104EF000890FAB01BC01405D5A486F4F7F4F409313
:104F00004C0650934D0660934E0670934F060E94D8
:104F1000890F00914C0610914D0620914E0630915C
:104F20004F06061717072807390710F40E94321892
:104F300020914706309148068091490690914A0693
:104F40002817390729F082E0809354060E942B1815
:104F5000E0914906F0914A06F0934806E09347062F
:104F600080916B11882331F1C11124C00E94890FF7
:104F70000091430610914406209145063091460663
:104F80000617170728073907B0F4E0914706F09194
:104F9000480619950E94890FDC01CB01CC96A11D12
:104FA000B11D8093430690934406A0934506B093A9
:104FB000460601C01995CF911F910F9108950E9447
:104FC000321881E00E9432270895CF93DF9300D0FA
:104FD0001F92CDB7DEB780E090E0A8E4B3E4898308
:104FE0009A83AB83BC8360E0CE0101960E94D670A9
:104FF00010922D1110922C110E94A8710E94DF278F
:1050000080E00E9432270F900F900F900F90DF9159
:10501000CF910895CF93DF9300D01F92CDB7DEB725
:1050200019821A821B821C8260E0CE0101960E94C6
:10503000D6701092A40E1092A30E8FEF90E0909372
:105040002D1180932C110E94DF2780E00E943227CF
:105050000F900F900F900F90DF91CF910895CF9305
:10506000C1E0C093C60E82E090E09093C50E80939D
:10507000C40E82EC98E00E94262782E080935406BA
:105080000E94DF27C0933A06CF91089587EB98E0FE
:105090000E94262782E08093540681E080933A069E
:1050A0008093C60E81E090E09093C50E8093C40E6D
:1050B0000E94DF2708952F923F924F925F926F9246
:1050C0007F928F929F92AF92BF92CF92DF92EF9298
:1050D000FF920F931F93CF93DF93CDB7DEB7C654E4
:1050E000D1090FB6F894DEBF0FBECDBF80913D064B
:1050F00090913E0699233CF410923E0610923D0694
:1051000080E090E016C0E0916706F0916806E15EED
:10511000FD4F20813181220F331F220F331F215079
:1051200031092817390728F4C90130933E06209326
:105130003D069C01992314F42D5F3F4F359527952B
:105140003595279520932D06B9017727809167061D
:10515000909168060E94A4C6882319F082E080938B
:10516000540680912D0680932E068091540682303D
:1051700021F40E945A1710925406E0916706F091AC
:105180006806E080F18082819381E816F90609F4CF
:105190003FC1712C0F2EF3E43F2EF02D612C4E01F8
:1051A00035E0830E911C5E018AE3A80EB11C00EC71
:1051B00010E00F2EF6EC4F2E512CF02DDF01AF5DDD
:1051C000BD4F2C9180819181329E800D911D1124C3
:1051D00022242394E816F90609F0262C67019EE0A4
:1051E000C90ED11CB601C4010E940FD4B7016F5F74
:1051F0007F4FC5010E940FD4D7018C918230D1F02E
:1052000018F4813039F0E0C0833021F1843009F4A2
:1052100083C0DAC0222039F023E043E0B601872DB5
:105220000E940F17E7C023E040E2B601872D0E94DD
:105230000F17E0C0222039F020E24EE3B601872D9F
:105240000E940F17D7C020E240E2B601872D0E94CE
:105250000F17D0C0222081F1472D662D84E196E002
:105260000E9486156EE384E196E00E94041465E0D6
:1052700084E196E00E9404148D81882321F06F8AD6
:10528000982D892D02C09A2D8B2DC92ED82E0F2E28
:10529000F2E12F2EF02DF60161916F01662309F4E2
:1052A00081C1211079C1A6C060E284E196E00E942C
:1052B00004142A94C9F79EC0472D662D84E196E018
:1052C0000E94861560E284E196E00E94041465E085
:1052D00084E196E00E9404148D81882321F06F8A76
:1052E000982D892D02C09A2D8B2DC92ED82E0F2EC8
:1052F000F2E12F2EF02DD6016D916D01662309F498
:1053000055C1211057C176C060E284E196E00E9449
:1053100004142A94C9F76EC0222059F1472D662D36
:1053200084E196E00E9486156EE384E196E00E9497
:1053300004148D81882321F0688E982D892D02C058
:105340009A2D8B2DC92ED82E0F2EF3E12F2EF02D56
:10535000F60161916F01662309F438C1211030C153
:1053600049C060E284E196E00E9404142A94C9F7DF
:1053700041C0472D662D84E196E00E94861560E2CB
:1053800084E196E00E9404148D81882321F0688EC8
:10539000982D892D02C09A2D8B2DC92ED82E0F2E17
:1053A000F3E12F2EF02DD6016D916D01662309F4E6
:1053B00011C1211013C11EC060E284E196E00E9479
:1053C00004142A94C9F716C0EFEAF8E094919923DF
:1053D00051F0D8018C9185FFFCCFD2019C9331967E
:1053E00094919111F6CFF801808185FFFCCFEAE01E
:1053F000D201EC937394F3E4EF0EF11CE091670695
:10540000F0916806828193818E159F0509F0D6CEB2
:105410000E942618882309F4E7C060912D0670E0E9
:1054200080916706909168060E9448CA813019F4FD
:105430000E944818ADC0843009F09DC0E091670615
:10544000F0916806DF01AF5DBD4F8C916081718185
:1054500033E4839F600D711D1124625F7F4FCE0185
:1054600005960E940FD48D81882381F154F543E481
:1054700053E032E4E0ECF0E086EC90E003C08823F7
:1054800014F5F5CF208125FFFDCFDC013C93DA0137
:105490003D91AD013111F6CFE0ECF0E0808185FF68
:1054A000FDCF8AE08093C60081EA98E00E9426271B
:1054B00082E0809354060E94DF2780E00E9432271A
:1054C00067C0FE01369681918111D9CF80E090E0CE
:1054D000A8E4B3E489839A83AB83BC8360E0CE0104
:1054E00001960E94D67010922D1110922C11E0910D
:1054F0006706F0916806DF01AF5DBD4F2C9180819A
:105500009181B3E42B9F800D911D112401969F93EF
:105510008F938AE998E09F938F93CE0105969F938E
:105520008F930E944DD486E998E00E9496988FE868
:1055300098E00E94969889850F900F900F900F9099
:105540000F900F90882361F08E01075F1F4F90E04E
:105550000E9477D3F80181938F0180818111F7CF69
:10556000CE0105960E940D988BE898E00E949698CF
:105570000E94DF270DC0E0916706F0916806EA5CA3
:10558000FD4F8081893021F010923E0610923D0639
:1055900082E08093540628C084E196E00E940414BF
:1055A0002A9479CE222009F425CF7ECE222009F438
:1055B00021CFAACE84E196E00E9404142A949BCEC7
:1055C00084E196E00E9404142A94C2CE222009F4B9
:1055D00011CFC7CE222009F40DCFEECE84E196E0A4
:1055E0000E9404142A94DFCECA5BDF4F0FB6F894F2
:1055F000DEBF0FBECDBFDF91CF911F910F91FF9006
:10560000EF90DF90CF90BF90AF909F908F907F9062
:105610006F905F904F903F902F9008956F927F9280
:105620008F929F92AF92BF92CF92DF92EF92FF92B2
:105630000F931F93CF93DF93CDB7DEB728970FB6A5
:10564000F894DEBF0FBECDBF8091C80E882339F01D
:105650008EE09BE290934A0680934906F4C0109234
:105660006B1160E089E691E10E9469811D821E82D2
:105670001F82188660E0CE0105960E94D6700E94B7
:105680001F990E94316D8BE698E00E94262782E0E8
:10569000809354060E94DF2780E00E9432270E94F8
:1056A000EB6280E00E94E9610F2EF2E56F2EF1E1DE
:1056B0007F2EF02DF301608371838283938381E0D9
:1056C0000E94E9610F2EF6E58F2EF1E19F2EF02D5D
:1056D000F401608371838283938382E00E94E96195
:1056E0000F2EFAE5AF2EF1E1BF2EF02D20E030E0D5
:1056F00040E251E40E9485CAF50160837183828390
:10570000938383E00E94E96120E030E040E251E4CD
:105710000E9484CA60935E1170935F118093601140
:10572000909361110F2EFEE2CF2EF1E1DF2EF02DCE
:10573000E12CF12C08E412E42EE531E1A501B401DD
:10574000C3010E945B55F301108211821282138201
:1057500080E090E0A6E1B3E4F40180839183A2832A
:10576000B38320E030E040EA51E4F50160817181CB
:10577000828193810E9485CA6B017C0120E030E028
:1057800044E353E40E9461CD18164CF0C0925A11C4
:10579000D0925B11E0925C11F0925D110CC080E040
:1057A00090E0A4E3B3E480935A1190935B11A0932B
:1057B0005C11B0935D110F2EFEE2CF2EF1E1DF2ED2
:1057C000F02DE12CF12C08E412E42EE531E14AE55C
:1057D00051E166E571E182E591E10E945B550E942D
:1057E000656C8FE598E00E94969880917C0D8823E7
:1057F00039F110927C0DF0902E11EF2DF0E0EE0FAC
:10580000FF1FEB55F14F60817181882777FD8095EF
:10581000982F0E9400CC20912802309129024091BB
:105820002A0250912B020E9461CD18164CF4198265
:105830001A821B821C826F2DCE0101960E94D670A7
:1058400081E080932B1128960FB6F894DEBF0FBE2F
:10585000CDBFDF91CF911F910F91FF90EF90DF901F
:10586000CF90BF90AF909F908F907F906F90089552
:105870000E94262781E08093310687E693E3909388
:105880004A06809349060895109231060895CF93F1
:10589000DF9300D01F92CDB7DEB76091A50E709157
:1058A000A60E882777FD8095982F0E9400CC6983EB
:1058B0007A838B839C8360E0CE0101960E94D67030
:1058C00010922D1110922C1181E080934B068AECDE
:1058D00095E30E943B180F900F900F900F90DF916F
:1058E000CF91089581E080934B0681E392E20E947C
:1058F0003B180895CF93DF9300D01F92CDB7DEB74A
:105900006091A50E7091A60E882777FD8095982F3F
:105910000E9400CC69837A838B839C8360E0CE01F4
:1059200001960E94D67010922D1110922C1181E0D8
:1059300080934B068AE197E30E943B180F900F90EB
:105940000F900F90DF91CF91089589E297E00E9428
:10595000969881E080934B0680E798E30E94DF18D9
:105960000895CF93DF9300D01F92CDB7DEB7198291
:105970001A821B821C8260E0CE0101960E94D670C2
:1059800020E030E040E752E460919D0E70919E0E61
:1059900080919F0E9091A00E0E945ECB88231CF4F4
:1059A0000E94A52C11C08FEF90E090932D11809351
:1059B0002C1181E080934B068BE295E390934A068D
:1059C000809349060E942B180F900F900F900F9014
:1059D000DF91CF91089587EF98E30E94DF1881E06F
:1059E0000E9432270895FC01808190E02AE030E097
:1059F000B9010E9409CF482FCB01B9010E9409CFFC
:105A0000805D80930C06405D40930D0610920E065B
:105A10008CE096E0089520E030E040E251E4FC01A3
:105A200060817181828193810E9433CE0E94CDCBAF
:105A3000772314F02BE201C02DE220930C069B018A
:105A4000772324F422273327261B370BC90168EE5E
:105A500073E00E9409CFCB01EAE0F0E0BF010E94B1
:105A600009CF805D80930D06C90164E670E00E9455
:105A700009CFCB01BF010E9409CF805D80930E0644
:105A8000C901BF010E9409CF282FCB01BF010E948D
:105A900009CF805D80930F068EE280931006205D13
:105AA00020931106109212068CE096E008958F92D2
:105AB0009F92AF92BF92CF92DF92EF92FF92CF93DD
:105AC00020E030E048EC52E4FC0160817181828189
:105AD00093810E9433CE0E94CDCB4B015C01992370
